:04000000C6EF1EF039
:10100000000000004B46414E204F4646202D4C65C7
:1010100076656C20200054454D503A20004F4E20FC
:09102000004F464600256900005E
:10102A000450800B0D6E045004240F6E03AE20EFA3
:10103A0008F022EF08F023EF08F00F800F50D8B421
:10104A0029EF08F02BEF08F040EF08F00F28D8A49A
:10105A0031EF08F033EF08F03BEF08F0000E016EB5
:10106A00000E026E000E036E000E046E038E000E5A
:10107A00046E48EF08F0000E016E000E026E000EBC
:10108A00036E000E046E0850800B0E6E0D500E1883
:10109A00D8B452EF08F054EF08F055EF08F00D8C71
:1010AA00085008240E6E07AE5DEF08F05FEF08F0F7
:1010BA0060EF08F00E800E50D8B466EF08F068EFC3
:1010CA0008F07DEF08F00E28D8A46EEF08F070EF54
:1010DA0008F078EF08F0000E056E000E066E000E9E
:1010EA00076E000E086E078E000E086E85EF08F078
:1010FA00000E056E000E066E000E076E000E086EDC
:10110A000F500E5CD8B08CEF08F08EEF08F0B5EFF8
:10111A0008F00DAC93EF08F095EF08F097EF08F0A0
:10112A00800E0D1A0FC010F00EC00FF010C00EF096
:10113A0001C010F005C001F010C005F002C010F0A7
:10114A0006C002F010C006F003C010F007C003F09A
:10115A0010C007F004C010F008C004F010C008F076
:10116A00000E106E0F500EC009F00A6A095E000EDA
:10117A000A5A0ABECAEF08F00A5009E11A0E095CB7
:10118A00D8A0CAEF08F0CCEF08F003EF09F001503D
:10119A00021003100410D8A4D5EF08F0D8EF08F015
:1011AA00010ED9EF08F0000E106E000E016E000E4F
:1011BA00026E000E036E000E046E0EC00FF00CEFEE
:1011CA0009F010A0EBEF08F0EDEF08F0F3EF08F0EC
:1011DA00D89010300109106EF5EF08F0D89010324F
:1011EA0001A0FAEF08F0FCEF08F0FDEF08F0108E0E
:1011FA00043404320332023201320F2A0E500F5CD9
:10120A00D8A00AEF09F00CEF09F0E6EF08F00DBCE0
:10121A0011EF09F013EF09F053EF09F00F50D8A4BA
:10122A0019EF09F01BEF09F025EF09F0000E016E26
:10123A00000E026E000E036E000E046E74EF0AF0CA
:10124A0005500126065002220750032208500422A4
:10125A0004A032EF09F034EF09F0E0EF09F010A032
:10126A0039EF09F03BEF09F041EF09F0D89010305F
:10127A000109106E43EF09F0D890103201A048EF2F
:10128A0009F04AEF09F04BEF09F0108E04340432EA
:10129A000332023201320F2AE0EF09F00550015CF5
:1012AA0006500258075003580450800A096E085025
:1012BA00800A0958D8B064EF09F066EF09F091EF97
:1012CA0009F00150055C096E025006580A6E035077
:1012DA0007580B6E045008580C6EFF0E0924016E55
:1012EA00FF0E0A20026EFF0E0B20036EFF0E0C206B
:1012FA00046E800E0D1A106C1050D8A487EF09F0F6
:10130A0089EF09F099EF09F0010E0126000E022279
:10131A000322042299EF09F00550015E0650025A91
:10132A000750035A0850045A0150021003100410BF
:10133A00D8A4A2EF09F0A4EF09F0D9EF09F01050F0
:10134A00D8A4AAEF09F0ACEF09F0D9EF09F0000E22
:10135A00016E000E026E000E036E000E046E74EF34
:10136A000AF0D890013602360336043610AEC0EFC2
:10137A0009F0C2EF09F0C3EF09F0018010A0C8EF2D
:10138A0009F0CAEF09F0CEEF09F0D8801036D0EF95
:10139A0009F0D89010360F50D8B4D6EF09F0D8EF2C
:1013AA0009F0D9EF09F00F0603AEDEEF09F0E0EF1E
:1013BA0009F0B6EF09F0000E0E6E10AEE7EF09F075
:1013CA00E9EF09F001EF0AF010C009F07F0E0916E3
:1013DA00D8B4F2EF09F0F4EF09F0F8EF09F0010ED2
:1013EA000E6E01EF0AF001A0FDEF09F0FFEF09F020
:1013FA0001EF0AF0F4EF09F00E50D8B407EF0AF043
:10140A0009EF0AF034EF0AF0010E0126000E02225B
:10141A000322042204A014EF0AF016EF0AF034EFB4
:10142A000AF001C009F002C00AF003C00BF004C0C0
:10143A000CF00C340C320B320A32093209C001F0BA
:10144A000AC002F00BC003F00CC004F00F28D8B495
:10145A0031EF0AF033EF0AF034EF0AF00F2A0F28BF
:10146A00D8B43AEF0AF03CEF0AF044EF0AF00F5012
:10147A00D8A442EF0AF044EF0AF056EF0AF0000E41
:10148A00016E000E026E000E036E000E046E0F5007
:10149A00D8A452EF0AF054EF0AF056EF0AF0000E01
:1014AA000D6E0FA05BEF0AF05DEF0AF060EF0AF035
:1014BA00038E61EF0AF0039ED8900F30046E0DAED2
:1014CA0069EF0AF06BEF0AF06CEF0AF0048E01C0C4
:1014DA0001F002C002F003C003F004C004F01200DD
:1014EA002B50800B346E2B502B243A6E2AAE80EF91
:1014FA000AF082EF0AF083EF0AF03A803A50D8B441
:10150A0089EF0AF08BEF0AF09EEF0AF03A28D8A486
:10151A0091EF0AF093EF0AF09BEF0AF0000E286EA3
:10152A00000E296E000E2A6E000E2B6E2A8EA6EF72
:10153A000AF0000E286E000E296E000E2A6E000EAA
:10154A002B6E2F50800B341A2F502F24396E2EAE4B
:10155A00B1EF0AF0B3EF0AF0B4EF0AF0398039506C
:10156A00D8B4BAEF0AF0BCEF0AF0CFEF0AF0392884
:10157A00D8A4C2EF0AF0C4EF0AF0CCEF0AF0000ECA
:10158A002C6E000E2D6E000E2E6E000E2F6E2E8EFD
:10159A00D7EF0AF0000E2C6E000E2D6E000E2E6E86
:1015AA00000E2F6E3950D8B4DDEF0AF0DFEF0AF0E3
:1015BA00E7EF0AF03A50D8A4E5EF0AF0E7EF0AF0AD
:1015CA00F1EF0AF0000E286E000E296E000E2A6E48
:1015DA00000E2B6E89EF0CF02E502802F3CF3FF04D
:1015EA00F4CF40F03F50356E366A376A386A405059
:1015FA003B6E3C6A3D6A3E6A2D502902F3CF3FF0AA
:10160A00F4CF40F03F503526000E362237223822DA
:10161A0040503B26000E3C223D223E222C502A02FC
:10162A00F3CF3FF0F4CF40F03F503526000E36227C
:10163A003722382240503B26000E3C223D223E22D1
:10164A0037C038F036C037F035C036F0356A2C501E
:10165A002902F3CF3FF0F4CF40F03F5035264050F7
:10166A003622000E3722000E38222D502802F3CFE0
:10167A003FF0F4CF40F03F50352640503622000E5E
:10168A003722000E382237C038F036C037F035C05E
:10169A0036F0356A2C502802F3CF3FF0F4CF40F0F1
:1016AA003F50352640503622000E3722000E38228F
:1016BA002E502902F3CF3FF0F4CF40F03F503B26A3
:1016CA0040503C22000E3D22000E3E222D502A029E
:1016DA00F3CF3FF0F4CF40F03F503B2640503C223E
:1016EA00000E3D22000E3E222E502A02F3CF3FF07A
:1016FA00F4CF40F03F50306E4050316E326A336A58
:10170A0032C033F031C032F030C031F0306A30507C
:10171A003B2631503C2232503D2233503E2235C0C6
:10172A0030F036C031F037C032F038C033F0190E1D
:10173A00A4EF0BF0D8903332323231323032E82E05
:10174A009FEF0BF030503B2631503C2232503D2265
:10175A0033503E2237C038F036C037F035C036F045
:10176A00356A39503AC030F0316A3026000E3122DB
:10177A00820E30243F6EFF0E3120406EDAEF0BF0FE
:10178A00D8903B363C363D363E3638AECFEF0BF07E
:10179A00D1EF0BF0D2EF0BF03B80D89035363636CE
:1017AA00373638363F06D8A040063DAEDFEF0BF09D
:1017BA00E1EF0BF0C5EF0BF0000E396E38AEE8EF33
:1017CA000BF0EAEF0BF00EEF0CF0FF0E3514306E53
:1017DA00FF0E3614316EFF0E3714326E7F0E381438
:1017EA00336E3050311032103310D8B4FFEF0BF093
:1017FA0001EF0CF005EF0CF0010E396E0EEF0CF054
:10180A003BA00AEF0CF00CEF0CF00EEF0CF001EF1E
:10181A000CF03950D8B414EF0CF016EF0CF03AEF84
:10182A000CF0010E3B26000E3C223D223E223EA039
:10183A0021EF0CF023EF0CF03AEF0CF03BC030F044
:10184A003CC031F03DC032F03EC033F03334333265
:10185A0032323132303230C03BF031C03CF032C02B
:10186A003DF033C03EF03F4A402A40BE45EF0CF0FF
:10187A00405008E13F28D8A045EF0CF047EF0CF0A4
:10188A0051EF0CF0000E3B6E000E3C6E800E3D6E6A
:10189A007F0E3E6E7FEF0CF040BE5EEF0CF04050C4
:1018AA0006E13F04D8B05CEF0CF05EEF0CF06AEF93
:1018BA000CF0000E3B6E000E3C6E000E3D6E000EEC
:1018CA003E6E000E346E7FEF0CF03FC03AF0FF0E12
:1018DA003B16FF0E3C167F0E3D16000E3E163AA032
:1018EA0079EF0CF07BEF0CF07CEF0CF03D8ED8908A
:1018FA003A303E6E34503E123BC028F03CC029F0CC
:10190A003DC02AF03EC02BF01200B2C053F0B3C063
:10191A0054F0B4C055F0B5C056F041C053F042C0BF
:10192A0054F043C055F044C056F053C045F054C07B
:10193A0046F055C047F056C048F0180EAAEF0CF012
:10194A00D8904832473246324532E82EA5EF0CF09D
:10195A0045504D6E4E6A4EBEBCEF0CF04E5009E13A
:10196A00960E4D5CD8A0BCEF0CF0BEEF0CF0C8EFA1
:10197A000CF041C041F042C042F043C043F044C0C1
:10198A0044F060EF0EF053C045F054C046F055C025
:10199A0047F056C048F0200ED8EF0CF0D8904832E5
:1019AA00473246324532E82ED3EF0CF04550461006
:1019BA0047104810D8B4E4EF0CF0E6EF0CF0F8EF5B
:1019CA000CF041C001F042C002F043C003F044C031
:1019DA0004F030EC20F001C041F002C042F003C034
:1019EA0043F004C044F04EBE06EF0DF04E5007E13E
:1019FA007E0E4D5CD8B004EF0DF006EF0DF022EF2D
:101A0A000DF053C028F054C029F055C02AF056C032
:101A1A002BF0000E2C6E000E2D6E000E2E6E000E98
:101A2A002F6E75EC0AF028C041F029C042F02AC096
:101A3A0043F02BC044F060EF0EF0000E056E000E6E
:101A4A00066E000E076E4B0E086E41C001F042C0D2
:101A5A0002F043C003F044C004F015EC08F001C0E2
:101A6A004FF002C050F003C051F004C052F0000E13
:101A7A00056E000E066E000E076ECB0E086E4FC086
:101A8A0001F050C002F051C003F052C004F015EC4E
:101A9A0008F001C049F002C04AF003C04BF004C08C
:101AAA004CF049C011F04AC012F04BC013F04CC0C0
:101ABA0014F041C015F042C016F043C017F044C0FC
:101ACA0018F069EC1FF011C057F012C058F013C09B
:101ADA0059F014C05AF0000E016E000E026E000E8C
:101AEA00036E3F0E046E57C005F058C006F059C089
:101AFA0007F05AC008F045EC19F0D8B087EF0DF09E
:101B0A0089EF0DF0BFEF0DF041C005F042C006F0BD
:101B1A0043C007F044C008F057C001F058C002F0B3
:101B2A0059C003F05AC004F015EC08F001C04FF098
:101B3A0002C050F003C051F004C052F04FC001F08F
:101B4A0050C002F051C003F052C004F0000E056EFE
:101B5A00000E066E800E076EBF0E086E15EC08F0BA
:101B6A0001C057F002C058F003C059F004C05AF03F
:101B7A0028EF0EF0000E016E000E026E000E036ECC
:101B8A00BF0E046E57C005F058C006F059C007F0E2
:101B9A005AC008F045EC19F0D8A0D6EF0DF0D8EFEE
:101BAA000DF00EEF0EF041C005F042C006F043C042
:101BBA0007F044C008F057C001F058C002F059C0FD
:101BCA0003F05AC004F015EC08F001C04FF002C04F
:101BDA0050F003C051F004C052F04FC001F050C0A1
:101BEA0002F051C003F052C004F0000E056E000E60
:101BFA00066E800E076E3F0E086E15EC08F001C0E7
:101C0A0057F002C058F003C059F004C05AF028EF48
:101C1A000EF057C001F058C002F059C003F05AC084
:101C2A0004F041C005F042C006F043C007F044C0CA
:101C3A0008F015EC08F001C057F002C058F003C0D4
:101C4A0059F004C05AF053C045F054C046F055C08C
:101C5A0047F056C048F0200E38EF0EF0D8904832C0
:101C6A00473246324532E82E33EF0EF045504610E1
:101C7A0047104810D8B444EF0EF046EF0EF058EF74
:101C8A000EF057C001F058C002F059C003F05AC014
:101C9A0004F030EC20F001C057F002C058F003C045
:101CAA0059F004C05AF057C041F058C042F059C028
:101CBA0043F05AC044F012001250800B1F6E1250AB
:101CCA001224266E11AE6CEF0EF06EEF0EF06FEF6F
:101CDA000EF026802650D8B475EF0EF077EF0EF08E
:101CEA008CEF0EF02628D8A47DEF0EF07FEF0EF0D1
:101CFA0087EF0EF0000E0F6E000E106E000E116EC2
:101D0A00000E126E118E000E126E94EF0EF0000E7F
:101D1A000F6E000E106E000E116E000E126E16502F
:101D2A00800B1F1A16501624276E15AE9FEF0EF061
:101D3A00A1EF0EF0A2EF0EF027802750D8B4A8EF3B
:101D4A000EF0AAEF0EF0BFEF0EF02728D8A4B0EFDE
:101D5A000EF0B2EF0EF0BAEF0EF0000E136E000E98
:101D6A00146E000E156E000E166E158E000E166E8F
:101D7A00C7EF0EF0000E136E000E146E000E156EF5
:101D8A00000E166E1350141015101610D8A4D0EFAA
:101D9A000EF0D2EF0EF0EAEF0EF0000E0F6E000E0C
:101DAA00106E000E116E000E126E800E11127F0E52
:101DBA0012121F5012120FC00FF010C010F011C0F3
:101DCA0011F012C012F02DEF10F02650D8A4F0EF47
:101DDA000EF0F2EF0EF0FCEF0EF0000E0F6E000E9A
:101DEA00106E000E116E000E126E2DEF10F02750BD
:101DFA0026C017F0186A175E000E185A7F0E1724AD
:101E0A00206E000E1820216E0FC01BF010C01CF0AF
:101E1A0011C01DF012C01EF0000E0F6E000E106EE3
:101E2A00000E116E000E126E000E226E000E236E50
:101E3A00000E246E000E256E000E276E5DEF0FF069
:101E4A002750D8B42BEF0FF02DEF0FF044EF0FF01F
:101E5A00D8901B361C361D361E36D8900F361036D3
:101E6A001136123625AE3CEF0FF03EEF0FF03FEF82
:101E7A000FF00F80D8902236233624362536135099
:101E8A001B5C14501C5815501D5816501E58D8A0CB
:101E9A0051EF0FF053EF0FF05CEF0FF0258C13505A
:101EAA001B5E14501C5A15501D5A16501E5A272ACA
:101EBA00190E276463EF0FF065EF0FF025EF0FF0AF
:101ECA001B501C101D101E10D8B46EEF0FF070EFCF
:101EDA000FF088EF0FF0228088EF0FF0D8900F36BE
:101EEA0010361136123625AE7DEF0FF07FEF0FF068
:101EFA0080EF0FF00F80D89022362336243625360D
:101F0A002006D8A0210611AE8DEF0FF08FEF0FF04B
:101F1A0073EF0FF0000E276E25AE96EF0FF098EFD5
:101F2A000FF0BCEF0FF0FF0E2214176EFF0E2314F2
:101F3A00186EFF0E2414196E7F0E25141A6E175090
:101F4A00181019101A10D8B4ADEF0FF0AFEF0FF048
:101F5A00B3EF0FF0010E276EBCEF0FF00FA0B8EF32
:101F6A000FF0BAEF0FF0BCEF0FF0AFEF0FF0275002
:101F7A00D8B4C2EF0FF0C4EF0FF0E8EF0FF0010E84
:101F8A000F26000E10221122122212A0CFEF0FF0FC
:101F9A00D1EF0FF0E8EF0FF00FC017F010C018F0F4
:101FAA0011C019F012C01AF01A341A321932183242
:101FBA00173217C00FF018C010F019C011F01AC06C
:101FCA0012F0204A212A21BEF3EF0FF0215008E136
:101FDA002028D8A0F3EF0FF0F5EF0FF000EF10F084
:101FEA00000E216E2068000E0F6E000E106E000E9D
:101FFA00116E000E126E21BE0DEF10F0215006E197
:10200A002004D8B00BEF10F00DEF10F01BEF10F01A
:10201A00000E216E000E206E000E0F6E000E106E66
:10202A00000E116E000E126E000E1F6E20C026F0FA
:10203A0026A022EF10F024EF10F027EF10F0118EF7
:10204A0028EF10F0119ED8902630126EDEEF0EF0B7
:10205A001200CFEC20F07A6E9E0E176E000E186EEC
:10206A00050E196E100E1A6ED7EC1CF07A6E9E0EC3
:10207A001E6E000E1F6E020E206E040E216E160ECC
:10208A00226E100E236EAEEC1FF07A6E9E0E1E6E3E
:10209A00000E1F6E020E206E0D0E216E430E226E72
:1020AA0010EC20F07A6E7B0E0B6E000E0C6ED0ECEC
:1020BA001FF07A6EAE0E0C6E000E0D6E000E0E6ED6
:1020CA00780E0F6E000E106E21EC1EF07A6EF60E70
:1020DA002C6E280E2D6E9C0E2E6E400E2F6E78C022
:1020EA0001F079C002F0036A046A000EBAEC12F039
:1020FA0001C028F002C029F003C02AF004C02BF066
:10210A0075EC0AF028C05BF029C05CF02AC05DF0CB
:10211A002BC05EF0C2EC18F05BC07DF05CC07EF0B4
:10212A00000E136E000E146E200E156E410E166E02
:10213A007DC001F07EC002F0036A046A000EBAECA8
:10214A0012F001C00FF002C010F003C011F004C079
:10215A0012F061EC0EF00FC041F010C042F011C055
:10216A0043F012C044F08AEC0CF041C05BF042C06C
:10217A005CF043C05DF044C05EF0C2EC18F05BC096
:10218A007DF05CC07EF0D60E6C6E000E6D6E7D50DA
:10219A003CEC1CF07A6E9E0E1E6E000E1F6E020E36
:1021AA00206E0A0E216ED60E226E000E236EAEEC43
:1021BA001FF07A6E7E5009E1790E7D5CD8A0E8EFB7
:1021CA0010F0EAEF10F0F2EF10F0350E766E640EB2
:1021DA0033EC18F07A6E53EF11F07E5009E15B0E82
:1021EA007D5CD8A0FBEF10F0FDEF10F005EF11F0C9
:1021FA00340E766E500E33EC18F07A6E53EF11F0FF
:10220A007E5009E1470E7D5CD8A00EEF11F010EF69
:10221A0011F018EF11F0330E766E3C0E33EC18F015
:10222A007A6E53EF11F07E5009E1330E7D5CD8A02F
:10223A0021EF11F023EF11F02BEF11F0320E766E31
:10224A00280E33EC18F07A6E53EF11F07E5009E144
:10225A001A0E7D5CD8A034EF11F036EF11F03EEF84
:10226A0011F0310E766E140E33EC18F07A6E53EFCD
:10227A0011F0300E766E000E33EC18F07A6E9E0E68
:10228A001E6E000E1F6E010E206E050E216E210EAF
:10229A00226E100E236EAEEC1FF07A6E300E761898
:1022AA00D8B45AEF11F05CEF11F06BEF11F09E0EFB
:1022BA001E6E000E1F6E010E206E050E216E1D0E83
:1022CA00226E100E236EAEEC1FF07A6E9E0E1E6EFC
:1022DA00000E1F6E010E206E100E216E76C022F0C7
:1022EA0010EC20F07A6E5FEF10F000EF00F01EC0E5
:1022FA0034F01FC035F020C036F021C037F022C0BC
:10230A0038F023C039F024C03AF025C03BF03BBE78
:10231A0091EF11F094EF11F0010E95EF11F0000E0C
:10232A003E6E3E50D8B49CEF11F09EEF11F0AEEF26
:10233A0011F03B1E3A1E391E381E371E361E351E38
:10234A00346C000E352236223722382239223A22BC
:10235A003B2274BEBBEF11F0745006E17304D8B08F
:10236A00B9EF11F0BBEF11F0C1EF11F0000E316EB1
:10237A00010E306EC5EF11F073C030F074C031F049
:10238A0071C032F072C033F03E50D8B4CFEF11F0C2
:10239A00D1EF11F0E8EF11F03206D8A033063E5023
:1023AA00D8A4DAEF11F0DCEF11F0E2EF11F0000E31
:1023BA002F6E2B0E2E6EE6EF11F0000E2F6E2D0EE5
:1023CA002E6E2EC03EF0000E3D6E1F0E3C6E000EAD
:1023DA000001D56F6DEF12F03C06D8A03D06B60E8F
:1023EA003C24D96E000E3D20DA6E34C001F035C0AF
:1023FA0002F036C003F037C004F038C005F039C027
:10240A0006F03AC007F03BC008F00A0E096E000E4B
:10241A000A6E000E0B6E000E0C6E000E0D6E000E94
:10242A000E6E000E0F6E000E106E13EC15F001C04A
:10243A0026F002C027F003C028F004C029F005C026
:10244A002AF006C02BF007C02CF008C02DF026C0D9
:10245A0013F027C014F0F0EC1FF01350300FDF6EAA
:10246A003006D8A031063206D8A0330634C001F0AF
:10247A0035C002F036C003F037C004F038C005F0AA
:10248A0039C006F03AC007F03BC008F00A0E096EE0
:10249A00000E0A6E000E0B6E000E0C6E000E0D6E14
:1024AA00000E0E6E000E0F6E000E106E94EC13F0FE
:1024BA0001C034F002C035F003C036F004C037F072
:1024CA0005C038F006C039F007C03AF008C03BF042
:1024DA003DBE78EF12F03D5008E13C04D8A078EFF9
:1024EA0012F07AEF12F096EF12F0345035103610DF
:1024FA003710381039103A103B10D8A487EF12F071
:10250A0089EF12F0F1EF11F031BE96EF12F031506F
:10251A0006E13004D8B094EF12F096EF12F0F1EF22
:10252A0011F03E50D8B49CEF12F09EEF12F0A9EFD2
:10253A0012F03C06D8A03D06B60E3C24D96E000E19
:10254A003D20DA6E3EC0DFFF1CC011F01DC012F044
:10255A00B60E3C24136E000E3D20146E32C015F0E8
:10256A0033C016F0AAEC1DF01200096E0950D8B457
:10257A00C1EF12F0C3EF12F0E5EF12F004BECAEF9A
:10258A0012F0C8EF12F0E5EF12F001C005F002C038
:10259A0006F003C007F004C008F0051E061E071E59
:1025AA00081E052A000E06220722082205C00BF083
:1025BA0006C00CF007C00DF008C00EF0EDEF12F0E7
:1025CA0001C00BF002C00CF003C00DF004C00EF005
:1025DA000150021003100410D8A4F6EF12F0F8EF1D
:1025EA0012F002EF13F0000E016E000E026E000EE2
:1025FA00036E000E046E93EF13F0960E0A6E0CEF44
:10260A0013F00A2AD8900E320D320C320B32000E19
:10261A000B14056E000E0C14066E000E0D14076ED8
:10262A00FE0E0E14086E0550061007100810D8A4E6
:10263A0021EF13F023EF13F006EF13F031EF13F04D
:10264A000A2A010E0B26000E0C220D220E22D89009
:10265A000E320D320C320B32000E0B14056E000EC8
:10266A000C14066E000E0D14076EFF0E0E14086E83
:10267A000550061007100810D8A446EF13F048EFCB
:10268A0013F025EF13F050EF13F00A06D8900B362B
:10269A000C360D360E360DBE55EF13F057EF13F00C
:1026AA005FEF13F0020E0A605DEF13F05FEF13F0B5
:1026BA004AEF13F00AB064EF13F066EF13F067EF16
:1026CA0013F00D9ED8900A320AC005F0066A076A0E
:1026DA00086A05C008F0076A066A056A05500B12FF
:1026EA0006500C1207500D1208500E120950D8B499
:1026FA0081EF13F083EF13F08BEF13F004BE8AEF30
:10270A0013F088EF13F08BEF13F00E8E0BC001F06D
:10271A000CC002F00DC003F00EC004F01200000E4F
:10272A00126E10BE9DEF13F09BEF13F0AFEF13F094
:10273A00101E0F1E0E1E0D1E0C1E0B1E0A1E096CED
:10274A00000E0A220B220C220D220E220F22102228
:10275A00010E126E08BEB6EF13F0B4EF13F0C8EF15
:10276A0013F0081E071E061E051E041E031E021E67
:10277A00016C000E022203220422052206220722ED
:10278A000822010E121A20EE13F0070EDE6AE8067E
:10279A00FDE209500A100B100C100D100E100F104C
:1027AA001010D8B4DBEF13F0DDEF13F02FEF14F0B5
:1027BA00010E116EEBEF13F0D89009360A360B367C
:1027CA000C360D360E360F361036112A10AEF0EFD3
:1027DA0013F0F2EF13F0E1EF13F0D890133614363A
:1027EA00153616361736183619361A360950015C58
:1027FA000A5002580B5003580C5004580D500558F3
:10280A000E5006580F50075810500858D8A010EF0D
:10281A0014F012EF14F023EF14F00950015E0A507D
:10282A00025A0B50035A0C50045A0D50055A0E50B6
:10283A00065A0F50075A1050085A1380D89010326F
:10284A000F320E320D320C320B320A320932112E8D
:10285A00F2EF13F01250D8B435EF14F037EF14F04A
:10286A0047EF14F01A1E191E181E171E161E151EE3
:10287A00141E136C000E1422152216221722182277
:10288A0019221A2213C001F014C002F015C003F075
:10289A0016C004F017C005F018C006F019C007F0FA
:1028AA001AC008F0120001C00BF002C00CF005506B
:1028BA000610D8A463EF14F065EF14F067EF14F074
:1028CA0012EF15F00BC0D9FF0CC0DAFF03C0DFFF0F
:1028DA0005500B24076E06500C20086EFF0E0724C5
:1028EA00D96EFF0E0820DA6E03C0DFFF065007E13B
:1028FA00030E055CD8B084EF14F086EF14F088EF6D
:10290A0014F012EF15F020EE01F00B50D9260C50FE
:10291A00DA2203C0DFFF20EE02F00B50D9260C505A
:10292A00DA2203C0DFFF05500B24076E06500C2085
:10293A00086EFE0E0724D96EFF0E0820DA6E03C059
:10294A00DFFF05500B24076E06500C20086EFD0EA3
:10295A000724D96EFF0E0820DA6E03C0DFFF065087
:10296A0007E1070E055CD8B0BDEF14F0BFEF14F015
:10297A00C1EF14F012EF15F020EE03F00B50D92638
:10298A000C50DA2203C0DFFF05500B24076E0650F5
:10299A000C20086EFC0E0724D96EFF0E0820DA6E92
:1029AA0003C0DFFF065007E1090E055CD8B0E0EF6F
:1029BA0014F0E2EF14F0E4EF14F012EF15F00BC08C
:1029CA0007F00CC008F0071E081E074A082A030E63
:1029DA000714096E0A6A09500B260A500C2209507C
:1029EA00055E0A50065AFC0E0516FF0E061609EF7A
:1029FA0015F00BC0D9FF0CC0DAFF03C0DFFF0506D4
:102A0A00D8A006060B4A0C2A05500610D8A410EFC7
:102A1A0015F012EF15F0FEEF14F01200000E126E10
:102A2A0008BE1CEF15F01AEF15F02EEF15F0081E70
:102A3A00071E061E051E041E031E021E016C000E42
:102A4A000222032204220522062207220822010E5C
:102A5A00126E10BE35EF15F033EF15F045EF15F095
:102A6A00101E0F1E0E1E0D1E0C1E0B1E0A1E096CBA
:102A7A00000E0A220B220C220D220E220F221022F5
:102A8A0009500A100B100C100D100E100F10101018
:102A9A00D8B452EF15F054EF15F09CEF15F0010E73
:102AAA00116E62EF15F0D89009360A360B360C36DD
:102ABA000D360E360F361036112A10AE67EF15F0A6
:102ACA0069EF15F058EF15F00950015C0A500258E9
:102ADA000B5003580C5004580D5005580E50065808
:102AEA000F50075810500858D8A07EEF15F080EF05
:102AFA0015F090EF15F00950015E0A50025A0B507A
:102B0A00035A0C50045A0D50055A0E50065A0F50CB
:102B1A00075A1050085AD89010320F320E320D321E
:102B2A000C320B320A320932112E69EF15F01250AB
:102B3A00D8B4A2EF15F0A4EF15F0B4EF15F0081E03
:102B4A00071E061E051E041E031E021E016C000E31
:102B5A00022203220422052206220722082201C099
:102B6A0001F002C002F003C003F004C004F005C083
:102B7A0005F006C006F007C007F008C008F012000A
:102B8A0041C0D9FF42C0DAFFDECFF6FFDDCFF7FF43
:102B9A000800F550250AD8A4D5EF15F0D7EF15F09F
:102BAA0056EF16F041C0D9FF42C0DAFFDE2A000E06
:102BBA00DD22000E726E000E716E71C075F07368C0
:102BCA00746841C0D9FF42C0DAFFDECF4FF0DDCFD3
:102BDA0050F04FC0F6FF50C0F7FF0800F550640AE6
:102BEA00D8B4FAEF15F0FCEF15F00AEF16F04FC063
:102BFA00F6FF50C0F7FF0800F550690AD8A408EF9D
:102C0A0016F00AEF16F04DEF16F043C0D9FF44C094
:102C1A00DAFFDFCF45F0020EDE26DFCF46F0000EE8
:102C2A00DD2245C0D9FF46C0DAFFDECF47F0DDCF4F
:102C3A0048F0000E48BEFF0E496E4A6E4B6E4C6E4F
:102C4A004D6E4E6E010E4F24456E000E5020466E9C
:102C5A0041C0D9FF42C0DAFF45C0DEFF46C0DDFFF2
:102C6A003FC01CF040C01DF047C01EF048C01FF016
:102C7A0049C020F04AC021F04BC022F04CC023F0DA
:102C8A004DC024F04EC025F07CEC11F06AEF16F02E
:102C9A0041C0D9FF42C0DAFFDE2A000EDD226AEF08
:102CAA0016F041C0D9FF42C0DAFFDECFF6FFDDCF12
:102CBA00F7FF0800F550016E026A3FC003F040C0FA
:102CCA0004F085EC1BF04DEF16F01200010E096EB0
:102CDA0001500210D8B474EF16F076EF16F087EFB1
:102CEA0016F001C0D9FF02C0DAFFDF30E832E8325D
:102CFA00070B036E070E036485EF16F087EF16F0D5
:102D0A00EAEF16F0000E096E0BEF17F001C0D9FFBB
:102D1A0002C0DAFFDF30E832E832070B036E010E39
:102D2A00046E032A9BEF16F0D8900436032E99EF0F
:102D3A0016F00450FF0A056E01C0D9FF02C0DAFF7F
:102D4A00DF50070B066E0650020D940EF324D96E5F
:102D5A00000EF420DA6EDECF07F0DDCF08F007C0F0
:102D6A00D9FF08C0DAFF0550DF160BEF17F001C0D4
:102D7A00D9FF02C0DAFFDF30E832E832070B036E10
:102D8A00010E046E032ACCEF16F0D8900436032EF7
:102D9A00CAEF16F001C0D9FF02C0DAFFDF50070BF5
:102DAA00056E0550020D940EF324D96E000EF42020
:102DBA00DA6EDECF06F0DDCF07F006C0D9FF07C016
:102DCA00DAFF0450DF120BEF17F001C0D9FF02C07F
:102DDA00DAFFDFBCF3EF16F0F6EF16F0010EF7EFAD
:102DEA0016F0000E036E046A0450000AD8B400EF0D
:102DFA0017F087EF16F00350000AD8B48BEF16F0DD
:102E0A00010AD8B4BCEF16F087EF16F00950120089
:102E1A00010E0A6E01500210D8B416EF17F018EF1F
:102E2A0017F029EF17F001C0D9FF02C0DAFFDF302F
:102E3A00E832E832070B046E070E046427EF17F036
:102E4A0029EF17F08CEF17F0000E0A6EA1EF17F0BA
:102E5A0001C0D9FF02C0DAFFDF30E832E832070BDF
:102E6A00046E010E056E042A3DEF17F0D890053660
:102E7A00042E3BEF17F00550FF0A066E01C0D9FF7A
:102E8A0002C0DAFFDF50070B076E0750020D800EF3
:102E9A00F324D96E000EF420DA6EDECF08F0DDCF0F
:102EAA0009F008C0D9FF09C0DAFF0650DF16A1EF02
:102EBA0017F001C0D9FF02C0DAFFDF30E832E8328A
:102ECA00070B046E010E056E042A6EEF17F0D890F8
:102EDA000536042E6CEF17F001C0D9FF02C0DAFFE5
:102EEA00DF50070B066E0650020D800EF324D96ED2
:102EFA00000EF420DA6EDECF07F0DDCF08F007C04F
:102F0A00D9FF08C0DAFF0550DF12A1EF17F003500E
:102F1A00046E056A0550000AD8B496EF17F029EF37
:102F2A0017F00450000AD8B42DEF17F0010AD8B4EC
:102F3A005EEF17F029EF17F00A501200000E1C6E10
:102F4A0017501810D8B4ACEF17F0AEEF17F031EFF6
:102F5A0018F017C00BF018C00CF05BEC1EF0010E55
:102F6A0017240B6E000E18200C6E5BEC1EF0000E80
:102F7A001B6E1B501724196E000E18201A6E020EB3
:102F8A0019240B6E000E1A200C6E5BEC1EF01B2A25
:102F9A00070E1B64D3EF17F0D5EF17F0BEEF17F04B
:102FAA001A0E196EF80EE82EFED7192EFCD700D08D
:102FBA0017C00EF018C00FF0380E106E66EC1DF038
:102FCA00070E196E7D0EE82EFED7192EFCD700F0DB
:102FDA0017C00EF018C00FF0380E106E66EC1DF018
:102FEA00320EE82EFED717C00EF018C00FF0380EBA
:102FFA00106E66EC1DF017C00EF018C00FF0010E2F
:10300A00106E66EC1DF017C00EF018C00FF0020E1D
:10301A00106E66EC1DF017C00EF018C00FF0060E09
:10302A00106E66EC1DF017C00EF018C00FF00C0EF3
:10303A00106E66EC1DF017C00EF018C00FF0380EB7
:10304A00106E66EC1DF017C00EF018C00FF0800E5F
:10305A00106E66EC1DF01C6E1C5012006E6E000E97
:10306A006B6E650E6E603CEF18F03EEF18F0C0EF25
:10307A0018F0010E6B6E6E5064086E6E000E136EC1
:10308A00000E146EC80E156E420E166E6E50016E4C
:10309A00026A036A046A010EBAEC12F001C00FF068
:1030AA0002C010F003C011F004C012F061EC0EF07F
:1030BA000FC02CF010C02DF011C02EF012C02FF04E
:1030CA00CB50656E666A010E6526000E662265C0E3
:1030DA0001F066C002F0000E02BEFF0E036E046E1F
:1030EA00010EBAEC12F001C028F002C029F003C0A8
:1030FA002AF004C02BF075EC0AF028C067F029C04A
:10310A0068F02AC069F02BC06AF0000E2C6E000E1F
:10311A002D6E800E2E6E400E2F6E67C028F068C08E
:10312A0029F069C02AF06AC02BF075EC0AF028C0B1
:10313A005BF029C05CF02AC05DF02BC05EF0C2ECE7
:10314A0018F05BC06CF05CC06DF06CC065F0030EEB
:10315A006516653ABD506518CF0B6518BD6E6CC013
:10316A0065F06DC066F0D89066326532D8906632E6
:10317A0065326550BE6E6B5012005D345E34646E0B
:10318A006450D8A4CBEF18F0CDEF18F0D7EF18F0B1
:10319A00000E5B6E000E5C6E000E5D6E000E5E6EC3
:1031AA0044EF19F05BC05FF05CC060F05DC061F095
:1031BA005EC062F0200EE7EF18F0D89062326132FA
:1031CA0060325F32E82EE2EF18F05F50636E5D8E78
:1031DA00FF0E5B16FF0E5C16FF0E5D16000E5E16E6
:1031EA00960E645E64BEFEEF18F0FCEF18F014EF62
:1031FA0019F06450800A970FD8B006EF19F008EF5B
:10320A0019F00AEF19F0CDEF18F0D8905E325D325E
:10321A005C325B32643E0AEF19F02CEF19F01F0E94
:10322A0064641AEF19F01CEF19F024EF19F0CDEFCE
:10323A0018F0D8905B365C365D365E3664066450AC
:10324A00D8A42AEF19F02CEF19F01EEF19F06350E9
:10325A00D8B432EF19F034EF19F03CEF19F05E1ED2
:10326A005D1E5C1E5B6C000E5C225D225E225BC0F2
:10327A005BF05CC05CF05DC05DF05EC05EF01200A9
:10328A00000E0114096E000E02140A6E800E031459
:10329A000B6E7F0E04140C6E09500A100B100C10E2
:1032AA00D8A45AEF19F05CEF19F064EF19F0000E88
:1032BA00016E000E026E000E036E000E046E000E0A
:1032CA000514096E000E06140A6E800E07140B6EA2
:1032DA007F0E08140C6E09500A100B100C10D8A49B
:1032EA0079EF19F07BEF19F083EF19F0000E056EF4
:1032FA00000E066E000E076E000E086E04AE88EF12
:10330A0019F08AEF19F093EF19F0016C021ED8B088
:10331A00022A031ED8B0032A800E045608AE98EF7C
:10332A0019F09AEF19F0A3EF19F0056C061ED8B040
:10333A00062A071ED8B0072A800E0856000E011A60
:10334A00000E021A000E031A800E041A000E051A45
:10335A00000E061A000E071A800E081A0550015CA4
:10336A00065002580750035808500458D8B0C0EF06
:10337A0019F0C2EF19F0C5EF19F0D890C6EF19F09D
:10338A00D8801200000E256E1A501B10D8B4D0EF48
:10339A0019F0D2EF19F038EF1AF0010E256EF00E7F
:1033AA00BD1694941AC0D9FF1BC0DAFFDECF1CF0F9
:1033BA00DECF1DF0DECF1EF0DECF1FF0020ED8905A
:1033CA001C361D361E361F36E82EE4EF19F01CC0D7
:1033DA0001F01DC002F01EC003F01FC004F020EE71
:1033EA0004F01A50D9261B50DA22DF50206E2050E2
:1033FA00056E066A076A086A91EC1EF001C021F0A0
:10340A0002C022F003C023F004C024F0000E0D6EA7
:10341A00090E0E6E3D0E0F6E000E106E21C001F0E9
:10342A0022C002F023C003F024C004F020EE05F00D
:10343A001A50D9261B50DA22DF501C6E1C50056E1A
:10344A00066A076A086A91EC1EF001C011F002C010
:10345A0012F003C013F004C014F0EAEC1BF00D04E0
:10346A00CB6E0F0EBD1225501200036E010E046EB4
:10347A006AEF1AF09280ABEF1AF09282ABEF1AF071
:10348A009284ABEF1AF09286ABEF1AF0928AABEF06
:10349A001AF09680ABEF1AF09682ABEF1AF0968488
:1034AA00ABEF1AF09384ABEF1AF09386ABEF1AF0F6
:1034BA009382ABEF1AF09388ABEF1AF09380ABEFDD
:1034CA001AF0000E046EABEF1AF00350016E026A96
:1034DA000250000AD8B474EF1AF066EF1AF00150DD
:1034EA00000AD8B43FEF1AF0010AD8B442EF1AF032
:1034FA00030AD8B445EF1AF0010AD8B448EF1AF013
:10350A00070AD8B44BEF1AF0010AD8B44EEF1AF0F2
:10351A00030AD8B451EF1AF0010AD8B454EF1AF0DA
:10352A000F0AD8B457EF1AF0010AD8B45AEF1AF0B2
:10353A00030AD8B45DEF1AF0010AD8B460EF1AF0A2
:10354A00070AD8B463EF1AF066EF1AF004501200B3
:10355A00000E0B6E01500210D8B4B6EF1AF0B8EF95
:10356A001AF01CEF1BF003500410D8B4BFEF1AF086
:10357A00C1EF1AF01CEF1BF0010E0B6E20EE03F0E8
:10358A000150D9260250DA22DFA0CEEF1AF0D0EF8E
:10359A001AF0E3EF1AF0C450066E056AC350052408
:1035AA00076E000E0620086E03C0D9FF04C0DAFFBA
:1035BA0007C0DEFF08C0DDFF1CEF1BF020EE03F0A2
:1035CA000150D9260250DA22DFB0EEEF1AF0F0EFFE
:1035DA001AF012EF1BF0C450056E066AD890053631
:1035EA000636D89005360636C3CF07F0060E086EA3
:1035FA00D8900732082EFDEF1AF007500524096EFD
:10360A00000E06200A6E03C0D9FF04C0DAFF09C003
:10361A00DEFF0AC0DDFF1CEF1BF003C0D9FF04C0A8
:10362A00DAFF000EDE6E000EDD6E000E0B6E0B5022
:10363A001200000E086E05500610D8B427EF1BF0D2
:10364A0029EF1BF083EF1BF0C29005C0D9FF06C01B
:10365A00DAFFDF50076E074607460746C0500718CD
:10366A00C70B0718C06E20EE01F00550D926065088
:10367A00DA22DF50076EC0500718F80B0718C06E21
:10368A0020EE03F00550D9260650DA22DFA250EFC9
:10369A001BF052EF1BF056EF1BF0C18AC18858EF9E
:1036AA001BF0C19AC19820EE03F00550D9260650A6
:1036BA00DA22DFB063EF1BF065EF1BF068EF1BF057
:1036CA00C09E69EF1BF0C08E20EE02F00550D9268D
:1036DA000650DA22DF50076E07460746C25007181F
:1036EA00C30B0718C26E20EE02F00550D926065009
:1036FA00DA22DF503AEC1AF0086EC2800850120043
:10370A0003500410D8B48CEF1BF08EEF1BF097EF28
:10371A001BF003500410D8A495EF1BF097EF1BF091
:10372A009CEF1BF00150D8EC20F0E9EF1BF020EEE3
:10373A0009F00350D9260450DA22DE50DE10D8B43C
:10374A00A9EF1BF0ABEF1BF0C6EF1BF020EE09F060
:10375A000350D9260450DA2210EE03F00350E12672
:10376A000450E222DE50E65CE650800A096EDE5022
:10377A00800A0958D8B0C4EF1BF0C6EF1BF0E9EF76
:10378A001BF020EE03F00350D9260450DA22DECFD4
:10379A0005F0DDCF06F003C0D9FF04C0DAFFDECFA3
:1037AA0007F0DDCF08F005500724D96E065008202F
:1037BA00DA6E01C0DFFF20EE03F00350D926045071
:1037CA00DA22DE2A000EDD221200000E156E000E2D
:1037DA00166E000E176E000E186E1150121013108E
:1037EA001410D8B4FBEF1BF0FDEF1BF033EF1CF005
:1037FA00010E196E07EF1CF0D890113612361336E7
:10380A001436192A14AE0CEF1CF00EEF1CF001EF5F
:10381A001CF0D890153616361736183611500D5C2E
:10382A0012500E5813500F5814501058D8A020EFA9
:10383A001CF022EF1CF02BEF1CF011500D5E125001
:10384A000E5A13500F5A1450105A1580D890143229
:10385A00133212321132192E0EEF1CF015C00DF070
:10386A0016C00EF017C00FF018C010F012006E6EDE
:10387A00000E6F6E6C506D10D8B446EF1CF048EF16
:10388A001CF088EF1CF0010E6F6E6CC001F06DC069
:10389A0002F0000E046E000E036E000E066E040E99
:1038AA00056E58EC14F06CC059F06DC05AF0250E34
:1038BA005B6E100E5C6E6EC05DF05E6AF6EC1EF01A
:1038CA00000E706E7FEF1CF070506C24D96E000EE3
:1038DA006D20DA6EDF50D8A475EF1CF077EF1CF07C
:1038EA007FEF1CF070506C24D96E000E6D20DA6EDA
:1038FA00200EDF6E702A020E706486EF1CF088EFCD
:10390A001CF069EF1CF06F501200000E1D6E17506C
:10391A001810D8B493EF1CF095EF1CF0D5EF1CF0FB
:10392A00030E19609BEF1CF09DEF1CF0D5EF1CF005
:10393A00110E1A60A3EF1CF0A5EF1CF0D5EF1CF0D6
:10394A001A06C0EF1CF017C00EF018C00FF01A507C
:10395A00800F106E66EC1DF01D6ED5EF1CF017C0BF
:10396A000EF018C00FF01A50C00F106E66EC1DF062
:10397A001D6ED5EF1CF019501B6E1C6A1C50000AF4
:10398A00D8B4CAEF1CF0D5EF1CF01B50010AD8B40A
:10399A00A8EF1CF0030AD8B4B4EF1CF0D5EF1CF062
:1039AA001D501200000E1B6E17501810D8B4E0EF0D
:1039BA001CF0E2EF1CF020EF1DF019501A10D8B4D9
:1039CA00E9EF1CF0EBEF1CF020EF1DF0010E1B6E6F
:1039DA0017C00EF018C00FF019C0F6FF1AC0F7FF93
:1039EA00000EF86E0F0EF76403D00800F55005D0EC
:1039FA00F6CFE1FFF7CFE2FFE750106E22EC1DF0A1
:103A0A00194A1A2A19C0F6FF1AC0F7FF000EF86EF3
:103A1A000F0EF76403D00800F55005D0F6CFE1FF8A
:103A2A00F7CFE2FFE7500009D8A41EEF1DF020EF00
:103A3A001DF0EDEF1CF01B501200000E156E0E501B
:103A4A000F10D8B42BEF1DF02DEF1DF064EF1DF011
:103A5A000EC001F00FC002F0010E036E0DEC17F05C
:103A6A00000E166E16500E24116E000E0F20126EE6
:103A7A00020E1124016E000E1220026E16C013F0FF
:103A8A0010C014F0132A4CEF1DF0D8901432132EE4
:103A9A004AEF1DF01450010B036E0DEC17F0162AB5
:103AAA00070E16645BEF1DF05DEF1DF037EF1DF09A
:103ABA000EC00BF00FC00CF044EC1FF0156E155041
:103ACA001200000E156E0E500F10D8B46FEF1DF0D5
:103ADA0071EF1DF0A8EF1DF00EC001F00FC002F04B
:103AEA00000E036E0DEC17F0000E166E16500E2423
:103AFA00116E000E0F20126E020E1124016E000EBE
:103B0A001220026E16C013F010C014F0132A90EFA0
:103B1A001DF0D8901432132E8EEF1DF01450010BA5
:103B2A00036E0DEC17F0162A070E16649FEF1DF0B0
:103B3A00A1EF1DF07BEF1DF00EC00BF00FC00CF0D3
:103B4A0044EC1FF0156E1550120016BEAFEF1DF0B3
:103B5A00B1EF1DF0B7EF1DF015C01AF016C01BF03B
:103B6A00BBEF1DF0000E1B6E000E1A6E000E196ED2
:103B7A00000E186ECDEF1DF0000E026E200E016EC3
:103B8A0011C003F012C004F085EC1BF0184A192A80
:103B9A001A50185C1950800A176E1B50800A175861
:103BAA00D8A0DAEF1DF0DCEF1DF0C1EF1DF013C055
:103BBA000AF014C00BF011C00CF012C00DF08CEC1E
:103BCA001FF01200000E046E01500210D8B4F0EF7C
:103BDA001DF0F2EF1DF01FEF1EF0010E046ECA94E5
:103BEA0020EE02F00150D9260250DA22DF50036E8D
:103BFA00CA500318FC0B0318CA6E20EE01F00150DC
:103C0A00D9260250DA22DF50036E034603460346E2
:103C1A00CA500318870B0318CA6E01C0D9FF02C025
:103C2A00DAFFDF50CC6E01C0D9FF02C0DAFFDF50E5
:103C3A00776ECA8404501200000E116E0C500D10DB
:103C4A00D8B42AEF1EF02CEF1EF059EF1EF00F50D9
:103C5A001010D8B433EF1EF035EF1EF059EF1EF0F6
:103C6A00010E116E0CC005F00DC006F00EC007F073
:103C7A0068EC20F011160CC001F00DC002F0B0EC97
:103C8A0020F01116C2B24CEF1EF04EEF1EF047EFB5
:103C9A001EF00CC001F00DC002F00FC003F010C0FE
:103CAA0004F0ADEC1AF01116115012000B500C1062
:103CBA00D8B462EF1EF064EF1EF075EF1EF00BC071
:103CCA00D9FF0CC0DAFFDF30E832E832070B0D6E9D
:103CDA00070E0D6473EF1EF075EF1EF079EF1EF0FC
:103CEA00000E0E6E8FEF1EF00BC001F00CC002F03A
:103CFA006BEC16F00E6E0BC001F00CC002F00BC09C
:103D0A00D9FF0CC0DAFF000EDFBE010E036E0DEC08
:103D1A0017F00E6E0E501200000E096E000E0A6E9B
:103D2A00000E0B6E000E0C6E01A09EEF1EF0A0EFAF
:103D3A001EF0A8EF1EF00550092606500A22075069
:103D4A000B2208500C22D89005360636073608365C
:103D5A00D8900432033202320132015002100310A9
:103D6A000410D8A4BBEF1EF0BDEF1EF099EF1EF0B1
:103D7A0009C001F00AC002F00BC003F00CC004F045
:103D8A001200040EF66E410EF76E000EF86E00EE8B
:103D9A0080F010EE32F00900F5CFEEFFE550E15069
:103DAA00FAE1AC0EF66E410EF76E000EF86E0900DF
:103DBA00F5CF7AF00900F5CF7BF00900F5CF7CF05A
:103DCA0000EEB2F02B0EEE6AE806FDE100EE71F0AD
:103DDA00090EEE6AE806FDE1000EF86E00012EEF0C
:103DEA0010F05D0E5F6E000E606E59C061F05AC031
:103DFA0062F0000E656E000E646E000E6B6E000EB1
:103E0A006A6E610E516E000E526E5BC053F05CC05A
:103E1A0054F05F0E556E000E566E1DEC1FF0645086
:103E2A005924D96E65505A20DA6E000EDF6E1200E0
:103E3A0053C057F054C058F031EF1FF051C03FF053
:103E4A0052C040F0570E416E000E426E55C043F00C
:103E5A0056C044F0C5EC15F057C0F6FF58C0F7FF3E
:103E6A000800F5500009D8A43DEF1FF03FEF1FF0FE
:103E7A0023EF1FF0000E526E000E516E1200000E5C
:103E8A000D6E0B500C10D8B44DEF1FF04FEF1FF012
:103E9A0067EF1FF0010E0B24016E000E0C20026E5C
:103EAA00010E036E0DEC17F000D000D000F0010EE9
:103EBA000B24016E000E0C20026E000E036E0DEC38
:103ECA0017F00D6E0D501200000E151A000E161A7C
:103EDA00000E171A800E181A11C001F012C002F053
:103EEA0013C003F014C004F015C005F016C006F0A4
:103EFA0017C007F018C008F015EC08F001C011F05F
:103F0A0002C012F003C013F004C014F01200000E35
:103F1A00106E000E0F6E9DEF1FF00EC001F0026AC8
:103F2A000CC003F00DC004F085EC1BF00F4A102AF8
:103F3A000F500A24D96E10500B20DA6EDF500E6E25
:103F4A000E50D8A4ABEF1FF0ADEF1FF092EF1FF0A9
:103F5A001200000E246E1E501F10D8B4B7EF1FF0C7
:103F6A00B9EF1FF0CEEF1FF01EC017F01FC018F0F8
:103F7A0020C019F021C01AF08AEC1CF01EC017F0FC
:103F8A001FC018F022C019F023C01AF0D7EC1CF099
:103F9A00246E24501200000E0D6E0B500C10D8B473
:103FAA00D9EF1FF0DBEF1FF0EEEF1FF00BC001F0AF
:103FBA000CC002F0010E036E0DEC17F0010E0B247B
:103FCA00016E000E0C20026E000E036E0DEC17F04F
:103FDA000D6E0D50120014BEFDEF1FF0145006E1D5
:103FEA001304D8B0FBEF1FF0FDEF1FF00BEF20F02A
:103FFA0013C015F014C016F0151E161E154A162AFF
:10400A0015C013F016C014F00FEF20F013C013F010
:10401A0014C014F01200000E236E1E501F10D8B4E4
:10402A0019EF20F01BEF20F02EEF20F01EC017F042
:10403A001FC018F020C019F021C01AF08AEC1CF039
:10404A001EC00EF01FC00FF022C010F022EC1DF0AF
:10405A00236E235012000150021003100410D8B42A
:10406A0039EF20F03BEF20F043EF20F0000E011A69
:10407A00000E021A000E031A800E041A01C001F083
:10408A0002C002F003C003F004C004F01200000EE4
:10409A00116E0F501010D8B455EF20F057EF20F0E2
:1040AA0066EF20F00FC00BF010C00CF05BEC1EF0B6
:1040BA00010E0F240B6E000E10200C6E5BEC1EF02E
:1040CA00116E11501200000E096E05500610D8B478
:1040DA0071EF20F073EF20F080EF20F007C008F0B6
:1040EA0008460846C2500818C30B0818C26E075083
:1040FA003AEC1AF0096E09501200890F8A0F8B0FD9
:10410A008C0F8D0F800F930F820F830F840F920FE6
:10411A00930F940F950F960F323A030B131B232B11
:10412A00333B88130000010105050001AE0E056E40
:10413A00000E066E1EEC1BF0A80E1A6E000E1B6E09
:10414A00C7EC19F0DA0E016E000E026EE7EC1DF0F4
:10415A00266E26501200000E036E01500210D8B4CB
:10416A00B9EF20F0BBEF20F0BEEF20F0010E036E96
:10417A00C282035012009E0E176E000E186EA3EC38
:10418A0017F07B0E0F6E000E106E4CEC20F01D6EB9
:10419A001D501200C0EC20F09BEC20F0276E275037
:0541AA00120001020AF1
:0241B0001200FB
:020000040020DA
:08000000FFFFFFFFFFFFFFFF00
:020000040030CA
:0E000000FF071F1FFF8385FF0FC00FE00F409B
:00000001FF
